{"abi":[{"type":"constructor","inputs":[],"stateMutability":"payable"},{"type":"receive","stateMutability":"payable"},{"type":"function","name":"FEE_PERCENTAGE","inputs":[],"outputs":[{"name":"","type":"uint256","internalType":"uint256"}],"stateMutability":"view"},{"type":"function","name":"MAX_BET","inputs":[],"outputs":[{"name":"","type":"uint256","internalType":"uint256"}],"stateMutability":"view"},{"type":"function","name":"owner","inputs":[],"outputs":[{"name":"","type":"address","internalType":"address"}],"stateMutability":"view"},{"type":"function","name":"playGame","inputs":[{"name":"_move","type":"uint8","internalType":"enum SharedTypes.Move"}],"outputs":[],"stateMutability":"payable"},{"type":"function","name":"playerBets","inputs":[{"name":"","type":"address","internalType":"address"}],"outputs":[{"name":"","type":"uint256","internalType":"uint256"}],"stateMutability":"view"},{"type":"function","name":"playerScores","inputs":[{"name":"","type":"address","internalType":"address"}],"outputs":[{"name":"wins","type":"uint256","internalType":"uint256"},{"name":"losses","type":"uint256","internalType":"uint256"},{"name":"ties","type":"uint256","internalType":"uint256"}],"stateMutability":"view"},{"type":"function","name":"renounceOwnership","inputs":[],"outputs":[],"stateMutability":"nonpayable"},{"type":"function","name":"transferOwnership","inputs":[{"name":"newOwner","type":"address","internalType":"address"}],"outputs":[],"stateMutability":"nonpayable"},{"type":"function","name":"withdrawFunds","inputs":[{"name":"amount","type":"uint256","internalType":"uint256"}],"outputs":[],"stateMutability":"nonpayable"},{"type":"event","name":"BetPlaced","inputs":[{"name":"player","type":"address","indexed":false,"internalType":"address"},{"name":"bet","type":"uint256","indexed":false,"internalType":"uint256"}],"anonymous":false},{"type":"event","name":"GamePlayed","inputs":[{"name":"player","type":"address","indexed":false,"internalType":"address"},{"name":"playerMove","type":"uint8","indexed":false,"internalType":"enum SharedTypes.Move"},{"name":"opponentMove","type":"uint8","indexed":false,"internalType":"enum SharedTypes.Move"},{"name":"outcome","type":"uint8","indexed":false,"internalType":"enum SharedTypes.Outcome"},{"name":"bet","type":"uint256","indexed":false,"internalType":"uint256"},{"name":"winnings","type":"uint256","indexed":false,"internalType":"uint256"}],"anonymous":false},{"type":"event","name":"OwnershipTransferred","inputs":[{"name":"previousOwner","type":"address","indexed":true,"internalType":"address"},{"name":"newOwner","type":"address","indexed":true,"internalType":"address"}],"anonymous":false},{"type":"event","name":"Withdrawal","inputs":[{"name":"player","type":"address","indexed":false,"internalType":"address"},{"name":"amount","type":"uint256","indexed":false,"internalType":"uint256"}],"anonymous":false},{"type":"error","name":"OwnableInvalidOwner","inputs":[{"name":"owner","type":"address","internalType":"address"}]},{"type":"error","name":"OwnableUnauthorizedAccount","inputs":[{"name":"account","type":"address","internalType":"address"}]},{"type":"error","name":"ReentrancyGuardReentrantCall","inputs":[]}],"bytecode":{"object":"0x60806040526200000e6200009d565b6200001862000027565b61185562000327823961185590f35b60405190565b60001b90565b9062000042600019916200002d565b9181191691161790565b90565b90565b6200006b6200006562000071926200004c565b6200004f565b6200004c565b90565b90565b90620000916200008b620000999262000052565b62000074565b825462000033565b9055565b620000a7620000b6565b620000b434600262000077565b565b620000c133620000f7565b565b90565b620000df620000d9620000e592620000c3565b6200004f565b6200004c565b90565b620000f46001620000c6565b90565b62000102906200018d565b6200011862000110620000e8565b600162000077565b565b90565b60018060a01b031690565b620001416200013b62000147926200011a565b6200004f565b6200011d565b90565b620001559062000128565b90565b62000163906200011d565b90565b620001719062000158565b9052565b91906200018b9060006020850194019062000166565b565b80620001af620001a8620001a260006200014a565b62000158565b9162000158565b14620001c257620001c090620002b9565b565b620001f3620001d260006200014a565b620001dc62000027565b918291631e4fbdf760e01b83526004830162000175565b0390fd5b60001c90565b60018060a01b031690565b620002176200021d91620001f7565b620001fd565b90565b6200022c905462000208565b90565b906200024260018060a01b03916200002d565b9181191691161790565b620002656200025f6200026b926200011d565b6200004f565b6200011d565b90565b62000279906200024c565b90565b62000287906200026e565b90565b90565b90620002a7620002a1620002af926200027c565b6200028a565b82546200022f565b9055565b60000190565b620002c5600062000220565b620002d28260006200028d565b906200030a620003037f8be0079c531659141344cd1fd0a4f28419497f9722a3daafe3b4186f6b6457e0936200027c565b916200027c565b916200031562000027565b806200032181620002b3565b0390a356fe6080604052600436101561001d575b366105825761001b6111de565b005b6100286000356100b6565b80620b46f8146100b1578063155dd5ee146100ac57806362550ae1146100a7578063715018a6146100a25780637e95b5231461009d5780638da5cb5b14610098578063985d4ac314610093578063c7aa327b1461008e5763f2fde38b0361000e5761054f565b61051a565b610495565b610423565b6103cb565b61035b565b610323565b6101ba565b61013c565b60e01c90565b60405190565b600080fd5b600080fd5b60009103126100d757565b6100c7565b90565b90565b90565b6100f96100f46100fe926100dc565b6100e2565b6100df565b90565b61010b60016100e5565b90565b610116610101565b90565b610122906100df565b9052565b919061013a90600060208501940190610119565b565b3461016c5761014c3660046100cc565b61016861015761010e565b61015f6100bc565b91829182610126565b0390f35b6100c2565b61017a816100df565b0361018157565b600080fd5b9050359061019382610171565b565b906020828203126101af576101ac91600001610186565b90565b6100c7565b60000190565b346101e8576101d26101cd366004610195565b6108ff565b6101da6100bc565b806101e4816101b4565b0390f35b6100c2565b60018060a01b031690565b610201906101ed565b90565b61020d816101f8565b0361021457565b600080fd5b9050359061022682610204565b565b906020828203126102425761023f91600001610219565b90565b6100c7565b61025b610256610260926101ed565b6100e2565b6101ed565b90565b61026c90610247565b90565b61027890610263565b90565b906102859061026f565b600052602052604060002090565b60001c90565b90565b6102a86102ad91610293565b610299565b90565b6102ba905461029c565b90565b6102c890600361027b565b6102d4600082016102b0565b916102ed60026102e6600185016102b0565b93016102b0565b90565b60409061031a610321949695939661031060608401986000850190610119565b6020830190610119565b0190610119565b565b346103565761035261033e610339366004610228565b6102bd565b6103499391936100bc565b938493846102f0565b0390f35b6100c2565b346103895761036b3660046100cc565b61037361095b565b61037b6100bc565b80610385816101b4565b0390f35b6100c2565b90565b6103a56103a06103aa9261038e565b6100e2565b6100df565b90565b6103bd66038d7ea4c68000610391565b90565b6103c86103ad565b90565b346103fb576103db3660046100cc565b6103f76103e66103c0565b6103ee6100bc565b91829182610126565b0390f35b6100c2565b610409906101f8565b9052565b919061042190600060208501940190610400565b565b34610453576104333660046100cc565b61044f61043e610996565b6104466100bc565b9182918261040d565b0390f35b6100c2565b6003111561046257565b600080fd5b9050359061047482610458565b565b906020828203126104905761048d91600001610467565b90565b6100c7565b6104a86104a3366004610476565b610d97565b6104b06100bc565b806104ba816101b4565b0390f35b906104c89061026f565b600052602052604060002090565b1c90565b6104ea9060086104ef93026104d6565b610299565b90565b906104fd91546104da565b90565b610517906105126004916000926104be565b6104f2565b90565b3461054a57610546610535610530366004610228565b610500565b61053d6100bc565b91829182610126565b0390f35b6100c2565b3461057d57610567610562366004610228565b61111d565b61056f6100bc565b80610579816101b4565b0390f35b6100c2565b600080fd5b61059890610593611229565b610875565b565b60209181520190565b60207f626c652066756e64730000000000000000000000000000000000000000000000917f5769746864726177616c20616d6f756e74206578636565647320617661696c6160008201520152565b6105fe602960409261059a565b610607816105a3565b0190565b61062190602081019060008183039101526105f1565b90565b1561062b57565b6106336100bc565b62461bcd60e51b8152806106496004820161060b565b0390fd5b634e487b7160e01b600052601160045260246000fd5b610672610678919392936100df565b926100df565b820391821161068357565b61064d565b60001b90565b9061069b60001991610688565b9181191691161790565b6106b96106b46106be926100df565b6100e2565b6100df565b90565b90565b906106d96106d46106e0926106a5565b6106c1565b825461068e565b9055565b6106ed90610247565b90565b6106f9906106e4565b90565b61070590610263565b90565b905090565b61071960008092610708565b0190565b6107269061070d565b90565b601f801991011690565b634e487b7160e01b600052604160045260246000fd5b9061075390610729565b810190811067ffffffffffffffff82111761076d57604052565b610733565b9061078561077e6100bc565b9283610749565b565b67ffffffffffffffff81116107a5576107a1602091610729565b0190565b610733565b906107bc6107b783610787565b610772565b918252565b606090565b3d6000146107e3576107d73d6107aa565b903d6000602084013e5b565b6107eb6107c1565b906107e1565b60007f5472616e73666572206661696c65640000000000000000000000000000000000910152565b610826600f60209261059a565b61082f816107f1565b0190565b6108499060208101906000818303910152610819565b90565b1561085357565b61085b6100bc565b62461bcd60e51b81528061087160048201610833565b0390fd5b6000806108fd926108a28161089b61089561089060026102b0565b6100df565b916100df565b1115610624565b6108bf6108b8826108b360026102b0565b610663565b60026106c4565b6108d76108d26108cd61127e565b6106f0565b6106fc565b906108e06100bc565b90816108eb8161071d565b03925af16108f76107c6565b5061084c565b565b61090890610587565b565b610912611229565b61091a610947565b565b90565b61093361092e6109389261091c565b6100e2565b6101ed565b90565b6109449061091f565b90565b610959610954600061093b565b6112c9565b565b61096361090a565b565b600090565b60018060a01b031690565b61098161098691610293565b61096a565b90565b6109939054610975565b90565b61099e610965565b506109a96000610989565b90565b6109c06109bb6109c59261091c565b6100e2565b6100df565b90565b60207f7a65726f00000000000000000000000000000000000000000000000000000000917f42657420616d6f756e74206d7573742062652067726561746572207468616e2060008201520152565b610a23602460409261059a565b610a2c816109c8565b0190565b610a469060208101906000818303910152610a16565b90565b15610a5057565b610a586100bc565b62461bcd60e51b815280610a6e60048201610a30565b0390fd5b60007f4265742073697a652065786365656473206d6178696d756d20616c6c6f776564910152565b610aa66020809261059a565b610aaf81610a72565b0190565b610ac99060208101906000818303910152610a9a565b90565b15610ad357565b610adb6100bc565b62461bcd60e51b815280610af160048201610ab3565b0390fd5b634e487b7160e01b600052602160045260246000fd5b60031115610b1557565b610af5565b90610b2482610b0b565b565b610b2f90610b1a565b90565b90565b610b49610b44610b4e92610b32565b6100e2565b6100df565b90565b60007f496e76616c6964206d6f76650000000000000000000000000000000000000000910152565b610b86600c60209261059a565b610b8f81610b51565b0190565b610ba99060208101906000818303910152610b79565b90565b15610bb357565b610bbb6100bc565b62461bcd60e51b815280610bd160048201610b93565b0390fd5b90565b610bec610be7610bf192610bd5565b6100e2565b6100df565b90565b634e487b7160e01b600052601260045260246000fd5b610c16610c1c916100df565b916100df565b908115610c27570690565b610bf4565b600090565b60031115610c3b57565b610af5565b90610c4a82610c31565b565b610c55906100df565b6000198114610c645760010190565b61064d565b600090565b610c7d610c83919392936100df565b926100df565b91610c8f8382026100df565b928184041490151715610c9e57565b61064d565b90565b610cba610cb5610cbf92610ca3565b6100e2565b6100df565b90565b610cce610cd4916100df565b916100df565b908115610cdf570490565b610bf4565b610cf3610cf9919392936100df565b926100df565b8201809211610d0457565b61064d565b610d1290610b1a565b90565b610d1e90610d09565b9052565b610d2b90610c40565b90565b610d3790610d22565b9052565b9194610d84610d8e92989795610d7a60a096610d70610d959a610d6660c08a019e60008b0190610400565b6020890190610d15565b6040870190610d15565b6060850190610d2e565b6080830190610119565b0190610119565b565b610db434610dae610da860006109ac565b916100df565b11610a49565b610dd834610dd1610dcb610dc66103ad565b6100df565b916100df565b1115610acc565b610de181610b26565b610df4610dee60006109ac565b916100df565b101580611086575b610e0590610bac565b610e103334906113d2565b610e2b610e1b61156f565b610e256003610bd8565b90610c0a565b610e33610c2c565b5080610e48610e4260006109ac565b916100df565b1460001461105c575060005b610e5f8282906115ab565b9182610e74610e6e6000610c40565b91610c40565b14600014610fe357610ea56000610e8d6003339061027b565b01610e9f610e9a826102b0565b610c4c565b906106c4565b5b610eae610c69565b5082610ec3610ebd6000610c40565b91610c40565b14600014610fab57610fa6610ee234610edc6002610b35565b90610c6e565b5b610f6b600080610f0e610efe85610ef8610101565b90610c6e565b610f086064610ca6565b90610cc2565b610f2b610f2482610f1f60026102b0565b610ce4565b60026106c4565b610f46610f3f610f3a336106f0565b6106fc565b9186610663565b610f4e6100bc565b9081610f598161071d565b03925af1610f656107c6565b5061084c565b33929394903490917f6dfc2af17697ae66c72629aff0c6c4acb23e6d6c358c49a2039f687dabf897c696610f9d6100bc565b96879687610d3b565b0390a1565b82610fbf610fb96001610c40565b91610c40565b14600014610fda57610fa6610fd460006109ac565b5b610ee3565b610fa634610fd5565b82610ff7610ff16001610c40565b91610c40565b1460001461102e5761102860016110106003339061027b565b0161102261101d826102b0565b610c4c565b906106c4565b5b610ea6565b611057600261103f6003339061027b565b0161105161104c826102b0565b610c4c565b906106c4565b611029565b61106f61106960016100e5565b916100df565b1460001461107f5760015b610e54565b600261107a565b50610e0561109382610b26565b6110a66110a06002610b35565b916100df565b11159050610dfc565b6110c0906110bb611229565b6110c2565b565b806110de6110d86110d3600061093b565b6101f8565b916101f8565b146110ee576110ec906112c9565b565b6111196110fb600061093b565b6111036100bc565b918291631e4fbdf760e01b83526004830161040d565b0390fd5b611126906110af565b565b61113190610263565b90565b60207f6e74726163740000000000000000000000000000000000000000000000000000917f43616e6e6f742063616c6c20726563656976652066726f6d207468697320636f60008201520152565b61118f602660409261059a565b61119881611134565b0190565b6111b29060208101906000818303910152611182565b90565b156111bc57565b6111c46100bc565b62461bcd60e51b8152806111da6004820161119c565b0390fd5b61120a6111e961127e565b6112036111fd6111f830611128565b6101f8565b916101f8565b14156111b5565b6112276112203461121b60026102b0565b610ce4565b60026106c4565b565b611231610996565b61124a61124461123f61127e565b6101f8565b916101f8565b0361125157565b61127a61125c61127e565b6112646100bc565b91829163118cdaa760e01b83526004830161040d565b0390fd5b611286610965565b503390565b9061129c60018060a01b0391610688565b9181191691161790565b90565b906112be6112b96112c59261026f565b6112a6565b825461128b565b9055565b6112d36000610989565b6112de8260006112a9565b9061131261130c7f8be0079c531659141344cd1fd0a4f28419497f9722a3daafe3b4186f6b6457e09361026f565b9161026f565b9161131b6100bc565b80611325816101b4565b0390a3565b60007f496e76616c696420706c61796572206164647265737300000000000000000000910152565b61135f601660209261059a565b6113688161132a565b0190565b6113829060208101906000818303910152611352565b90565b1561138c57565b6113946100bc565b62461bcd60e51b8152806113aa6004820161136c565b0390fd5b9160206113d09294936113c960408201966000830190610400565b0190610119565b565b6113ef826113e96113e360006109ac565b916100df565b11610a49565b6114138261140c6114066114016103ad565b6100df565b916100df565b1115610acc565b6114398161143261142c611427600061093b565b6101f8565b916101f8565b1415611385565b61144e82611449600484906104be565b6106c4565b907f43e08d78302cdf9c94e1ffd293c2a3696139ee41cf3199b6f5eed9c7f6cc60909161148561147c6100bc565b928392836113ae565b0390a1565b90565b6114a161149c6114a69261148a565b6100e2565b6100df565b90565b67ffffffffffffffff81116114c7576114c3602091610729565b0190565b610733565b906114de6114d9836114a9565b610772565b918252565b6114ed60006114cc565b90565b6114f86114e3565b90565b5190565b60200190565b90565b6115129051611505565b90565b1b90565b61153361152e611528836114fb565b926114ff565b611508565b9060208110611541575b5090565b6115549060001990602003600802611515565b163861153d565b61156761156c91610293565b6106a5565b90565b611577610c69565b506115a361159e61159961158b602061148d565b6115936114f0565b906117c1565b611519565b61155b565b90565b600090565b906115b46115a6565b50816115c86115c283610b1a565b91610b1a565b146000146115d7575050600290565b816115eb6115e56000610b1a565b91610b1a565b1480611692575b8015611656575b918215611614575b505060001461160f57600090565b600190565b90915061162a6116246002610b1a565b91610b1a565b14908161163a575b503880611601565b905061164f6116496001610b1a565b91610b1a565b1438611632565b508161166b6116656001610b1a565b91610b1a565b1480611677575b6115f9565b508061168c6116866000610b1a565b91610b1a565b14611672565b50806116a76116a16002610b1a565b91610b1a565b146115f2565b60018060981b0190565b60209181520190565b60005b8381106116d4575050906000910152565b8060209183015181850152016116c3565b61170461170d602093611712936116fb816114fb565b938480936116b7565b958691016116c0565b610729565b0190565b9161173a9261172d60408201936000830190610119565b60208184039101526116e5565b90565b60007f72616e646f6d42797465733a206661696c656400000000000000000000000000910152565b611772601360209261059a565b61177b8161173d565b0190565b6117959060208101906000818303910152611765565b90565b1561179f57565b6117a76100bc565b62461bcd60e51b8152806117bd6004820161177f565b0390fd5b6000919082916117cf6107c1565b506118026117db6116ad565b926117f36117e76100bc565b93849260208401611716565b60208201810382520382610749565b602081019051915afa61181c6118166107c6565b91611798565b9056fea2646970667358221220e1994f992aa29a251e4c5b49a2a8b443c4fc25a16002f32e03a24383252d010c64736f6c63430008170033","linkReferences":{}},"methodIdentifiers":{"FEE_PERCENTAGE()":"000b46f8","MAX_BET()":"7e95b523","owner()":"8da5cb5b","playGame(uint8)":"985d4ac3","playerBets(address)":"c7aa327b","playerScores(address)":"62550ae1","renounceOwnership()":"715018a6","transferOwnership(address)":"f2fde38b","withdrawFunds(uint256)":"155dd5ee"},"id":27}