{"abi":[{"type":"constructor","inputs":[],"stateMutability":"payable"},{"type":"receive","stateMutability":"payable"},{"type":"function","name":"FEE_PERCENTAGE","inputs":[],"outputs":[{"name":"","type":"uint256","internalType":"uint256"}],"stateMutability":"view"},{"type":"function","name":"MAX_BET","inputs":[],"outputs":[{"name":"","type":"uint256","internalType":"uint256"}],"stateMutability":"view"},{"type":"function","name":"owner","inputs":[],"outputs":[{"name":"","type":"address","internalType":"address"}],"stateMutability":"view"},{"type":"function","name":"playGame","inputs":[{"name":"_move","type":"uint8","internalType":"enum SharedTypes.Move"}],"outputs":[],"stateMutability":"payable"},{"type":"function","name":"playerBets","inputs":[{"name":"","type":"address","internalType":"address"}],"outputs":[{"name":"","type":"uint256","internalType":"uint256"}],"stateMutability":"view"},{"type":"function","name":"playerScores","inputs":[{"name":"","type":"address","internalType":"address"}],"outputs":[{"name":"wins","type":"uint256","internalType":"uint256"},{"name":"losses","type":"uint256","internalType":"uint256"},{"name":"ties","type":"uint256","internalType":"uint256"}],"stateMutability":"view"},{"type":"function","name":"renounceOwnership","inputs":[],"outputs":[],"stateMutability":"nonpayable"},{"type":"function","name":"transferOwnership","inputs":[{"name":"newOwner","type":"address","internalType":"address"}],"outputs":[],"stateMutability":"nonpayable"},{"type":"function","name":"withdrawFunds","inputs":[{"name":"amount","type":"uint256","internalType":"uint256"}],"outputs":[],"stateMutability":"nonpayable"},{"type":"event","name":"BetPlaced","inputs":[{"name":"player","type":"address","indexed":false,"internalType":"address"},{"name":"bet","type":"uint256","indexed":false,"internalType":"uint256"}],"anonymous":false},{"type":"event","name":"GamePlayed","inputs":[{"name":"player","type":"address","indexed":false,"internalType":"address"},{"name":"playerMove","type":"uint8","indexed":false,"internalType":"enum SharedTypes.Move"},{"name":"opponentMove","type":"uint8","indexed":false,"internalType":"enum SharedTypes.Move"},{"name":"outcome","type":"uint8","indexed":false,"internalType":"enum SharedTypes.Outcome"},{"name":"bet","type":"uint256","indexed":false,"internalType":"uint256"},{"name":"winnings","type":"uint256","indexed":false,"internalType":"uint256"}],"anonymous":false},{"type":"event","name":"OwnershipTransferred","inputs":[{"name":"previousOwner","type":"address","indexed":true,"internalType":"address"},{"name":"newOwner","type":"address","indexed":true,"internalType":"address"}],"anonymous":false},{"type":"event","name":"Withdrawal","inputs":[{"name":"player","type":"address","indexed":false,"internalType":"address"},{"name":"amount","type":"uint256","indexed":false,"internalType":"uint256"}],"anonymous":false},{"type":"error","name":"OwnableInvalidOwner","inputs":[{"name":"owner","type":"address","internalType":"address"}]},{"type":"error","name":"OwnableUnauthorizedAccount","inputs":[{"name":"account","type":"address","internalType":"address"}]},{"type":"error","name":"ReentrancyGuardReentrantCall","inputs":[]}],"bytecode":{"object":"0x60806040526200000e6200009d565b6200001862000027565b61186062000327823961186090f35b60405190565b60001b90565b9062000042600019916200002d565b9181191691161790565b90565b90565b6200006b6200006562000071926200004c565b6200004f565b6200004c565b90565b90565b90620000916200008b620000999262000052565b62000074565b825462000033565b9055565b620000a7620000b6565b620000b434600262000077565b565b620000c133620000f7565b565b90565b620000df620000d9620000e592620000c3565b6200004f565b6200004c565b90565b620000f46001620000c6565b90565b62000102906200018d565b6200011862000110620000e8565b600162000077565b565b90565b60018060a01b031690565b620001416200013b62000147926200011a565b6200004f565b6200011d565b90565b620001559062000128565b90565b62000163906200011d565b90565b620001719062000158565b9052565b91906200018b9060006020850194019062000166565b565b80620001af620001a8620001a260006200014a565b62000158565b9162000158565b14620001c257620001c090620002b9565b565b620001f3620001d260006200014a565b620001dc62000027565b918291631e4fbdf760e01b83526004830162000175565b0390fd5b60001c90565b60018060a01b031690565b620002176200021d91620001f7565b620001fd565b90565b6200022c905462000208565b90565b906200024260018060a01b03916200002d565b9181191691161790565b620002656200025f6200026b926200011d565b6200004f565b6200011d565b90565b62000279906200024c565b90565b62000287906200026e565b90565b90565b90620002a7620002a1620002af926200027c565b6200028a565b82546200022f565b9055565b60000190565b620002c5600062000220565b620002d28260006200028d565b906200030a620003037f8be0079c531659141344cd1fd0a4f28419497f9722a3daafe3b4186f6b6457e0936200027c565b916200027c565b916200031562000027565b806200032181620002b3565b0390a356fe6080604052600436101561001d575b366105825761001b6112f0565b005b6100286000356100b6565b80620b46f8146100b1578063155dd5ee146100ac57806362550ae1146100a7578063715018a6146100a25780637e95b5231461009d5780638da5cb5b14610098578063985d4ac314610093578063c7aa327b1461008e5763f2fde38b0361000e5761054f565b61051a565b610495565b610423565b6103cb565b61035b565b610323565b6101ba565b61013c565b60e01c90565b60405190565b600080fd5b600080fd5b60009103126100d757565b6100c7565b90565b90565b90565b6100f96100f46100fe926100dc565b6100e2565b6100df565b90565b61010b60016100e5565b90565b610116610101565b90565b610122906100df565b9052565b919061013a90600060208501940190610119565b565b3461016c5761014c3660046100cc565b61016861015761010e565b61015f6100bc565b91829182610126565b0390f35b6100c2565b61017a816100df565b0361018157565b600080fd5b9050359061019382610171565b565b906020828203126101af576101ac91600001610186565b90565b6100c7565b60000190565b346101e8576101d26101cd366004610195565b6108ff565b6101da6100bc565b806101e4816101b4565b0390f35b6100c2565b60018060a01b031690565b610201906101ed565b90565b61020d816101f8565b0361021457565b600080fd5b9050359061022682610204565b565b906020828203126102425761023f91600001610219565b90565b6100c7565b61025b610256610260926101ed565b6100e2565b6101ed565b90565b61026c90610247565b90565b61027890610263565b90565b906102859061026f565b600052602052604060002090565b60001c90565b90565b6102a86102ad91610293565b610299565b90565b6102ba905461029c565b90565b6102c890600361027b565b6102d4600082016102b0565b916102ed60026102e6600185016102b0565b93016102b0565b90565b60409061031a610321949695939661031060608401986000850190610119565b6020830190610119565b0190610119565b565b346103565761035261033e610339366004610228565b6102bd565b6103499391936100bc565b938493846102f0565b0390f35b6100c2565b346103895761036b3660046100cc565b61037361095b565b61037b6100bc565b80610385816101b4565b0390f35b6100c2565b90565b6103a56103a06103aa9261038e565b6100e2565b6100df565b90565b6103bd66038d7ea4c68000610391565b90565b6103c86103ad565b90565b346103fb576103db3660046100cc565b6103f76103e66103c0565b6103ee6100bc565b91829182610126565b0390f35b6100c2565b610409906101f8565b9052565b919061042190600060208501940190610400565b565b34610453576104333660046100cc565b61044f61043e610996565b6104466100bc565b9182918261040d565b0390f35b6100c2565b6003111561046257565b600080fd5b9050359061047482610458565b565b906020828203126104905761048d91600001610467565b90565b6100c7565b6104a86104a3366004610476565b610e1f565b6104b06100bc565b806104ba816101b4565b0390f35b906104c89061026f565b600052602052604060002090565b1c90565b6104ea9060086104ef93026104d6565b610299565b90565b906104fd91546104da565b90565b610517906105126004916000926104be565b6104f2565b90565b3461054a57610546610535610530366004610228565b610500565b61053d6100bc565b91829182610126565b0390f35b6100c2565b3461057d57610567610562366004610228565b61122f565b61056f6100bc565b80610579816101b4565b0390f35b6100c2565b600080fd5b6105989061059361133b565b610875565b565b60209181520190565b60207f626c652066756e64730000000000000000000000000000000000000000000000917f5769746864726177616c20616d6f756e74206578636565647320617661696c6160008201520152565b6105fe602960409261059a565b610607816105a3565b0190565b61062190602081019060008183039101526105f1565b90565b1561062b57565b6106336100bc565b62461bcd60e51b8152806106496004820161060b565b0390fd5b634e487b7160e01b600052601160045260246000fd5b610672610678919392936100df565b926100df565b820391821161068357565b61064d565b60001b90565b9061069b60001991610688565b9181191691161790565b6106b96106b46106be926100df565b6100e2565b6100df565b90565b90565b906106d96106d46106e0926106a5565b6106c1565b825461068e565b9055565b6106ed90610247565b90565b6106f9906106e4565b90565b61070590610263565b90565b905090565b61071960008092610708565b0190565b6107269061070d565b90565b601f801991011690565b634e487b7160e01b600052604160045260246000fd5b9061075390610729565b810190811067ffffffffffffffff82111761076d57604052565b610733565b9061078561077e6100bc565b9283610749565b565b67ffffffffffffffff81116107a5576107a1602091610729565b0190565b610733565b906107bc6107b783610787565b610772565b918252565b606090565b3d6000146107e3576107d73d6107aa565b903d6000602084013e5b565b6107eb6107c1565b906107e1565b60007f5472616e73666572206661696c65640000000000000000000000000000000000910152565b610826600f60209261059a565b61082f816107f1565b0190565b6108499060208101906000818303910152610819565b90565b1561085357565b61085b6100bc565b62461bcd60e51b81528061087160048201610833565b0390fd5b6000806108fd926108a28161089b61089561089060026102b0565b6100df565b916100df565b1115610624565b6108bf6108b8826108b360026102b0565b610663565b60026106c4565b6108d76108d26108cd611390565b6106f0565b6106fc565b906108e06100bc565b90816108eb8161071d565b03925af16108f76107c6565b5061084c565b565b61090890610587565b565b61091261133b565b61091a610947565b565b90565b61093361092e6109389261091c565b6100e2565b6101ed565b90565b6109449061091f565b90565b610959610954600061093b565b6113db565b565b61096361090a565b565b600090565b60018060a01b031690565b61098161098691610293565b61096a565b90565b6109939054610975565b90565b61099e610965565b506109a96000610989565b90565b6109c06109bb6109c59261091c565b6100e2565b6100df565b90565b60207f7a65726f00000000000000000000000000000000000000000000000000000000917f42657420616d6f756e74206d7573742062652067726561746572207468616e2060008201520152565b610a23602460409261059a565b610a2c816109c8565b0190565b610a469060208101906000818303910152610a16565b90565b15610a5057565b610a586100bc565b62461bcd60e51b815280610a6e60048201610a30565b0390fd5b60007f4265742073697a652065786365656473206d6178696d756d20616c6c6f776564910152565b610aa66020809261059a565b610aaf81610a72565b0190565b610ac99060208101906000818303910152610a9a565b90565b15610ad357565b610adb6100bc565b62461bcd60e51b815280610af160048201610ab3565b0390fd5b634e487b7160e01b600052602160045260246000fd5b60031115610b1557565b610af5565b90610b2482610b0b565b565b610b2f90610b1a565b90565b90565b610b49610b44610b4e92610b32565b6100e2565b6100df565b90565b60007f496e76616c6964206d6f76650000000000000000000000000000000000000000910152565b610b86600c60209261059a565b610b8f81610b51565b0190565b610ba99060208101906000818303910152610b79565b90565b15610bb357565b610bbb6100bc565b62461bcd60e51b815280610bd160048201610b93565b0390fd5b90565b610bec610be7610bf192610bd5565b6100e2565b6100df565b90565b634e487b7160e01b600052601260045260246000fd5b610c16610c1c916100df565b916100df565b908115610c27570690565b610bf4565b600090565b90565b60e01b90565b60031115610c4457565b600080fd5b90505190610c5682610c3a565b565b90602082820312610c7257610c6f91600001610c49565b90565b6100c7565b610c8090610b1a565b90565b610c8c90610c77565b9052565b916020610cb2929493610cab60408201966000830190610c83565b0190610c83565b565b610cbc6100bc565b3d6000823e3d90fd5b60031115610ccf57565b610af5565b90610cde82610cc5565b565b610ce9906100df565b6000198114610cf85760010190565b61064d565b600090565b610d11610d17919392936100df565b926100df565b91610d238382026100df565b928184041490151715610d3257565b61064d565b90565b610d4e610d49610d5392610d37565b6100e2565b6100df565b90565b610d62610d68916100df565b916100df565b908115610d73570490565b610bf4565b610d87610d8d919392936100df565b926100df565b8201809211610d9857565b61064d565b610da690610c77565b9052565b610db390610cd4565b90565b610dbf90610daa565b9052565b9194610e0c610e1692989795610e0260a096610df8610e1d9a610dee60c08a019e60008b0190610400565b6020890190610d9d565b6040870190610d9d565b6060850190610db6565b6080830190610119565b0190610119565b565b610e3c34610e36610e3060006109ac565b916100df565b11610a49565b610e6034610e59610e53610e4e6103ad565b6100df565b916100df565b1115610acc565b610e6981610b26565b610e7c610e7660006109ac565b916100df565b101580611198575b610e8d90610bac565b610e983334906114e4565b610eb3610ea3611681565b610ead6003610bd8565b90610c0a565b610ebb610c2c565b5080610ed0610eca60006109ac565b916100df565b1460001461116e575060005b610ef973__$3b2fad9c1a834d96c5cf1e908c2150efc2$__610c31565b602063061e0506918490610f1f8594610f2a610f136100bc565b96879586948594610c34565b845260048401610c90565b03915af49081156111695760009161113b575b509182610f53610f4d6000610cd4565b91610cd4565b146000146110c257610f846000610f6c6003339061027b565b01610f7e610f79826102b0565b610ce0565b906106c4565b5b610f8d610cfd565b5082610fa2610f9c6000610cd4565b91610cd4565b1460001461108a57611085610fc134610fbb6002610b35565b90610d02565b5b61104a600080610fed610fdd85610fd7610101565b90610d02565b610fe76064610d3a565b90610d56565b61100a61100382610ffe60026102b0565b610d78565b60026106c4565b61102561101e611019336106f0565b6106fc565b9186610663565b61102d6100bc565b90816110388161071d565b03925af16110446107c6565b5061084c565b33929394903490917f6dfc2af17697ae66c72629aff0c6c4acb23e6d6c358c49a2039f687dabf897c69661107c6100bc565b96879687610dc3565b0390a1565b8261109e6110986001610cd4565b91610cd4565b146000146110b9576110856110b360006109ac565b5b610fc2565b611085346110b4565b826110d66110d06001610cd4565b91610cd4565b1460001461110d5761110760016110ef6003339061027b565b016111016110fc826102b0565b610ce0565b906106c4565b5b610f85565b611136600261111e6003339061027b565b0161113061112b826102b0565b610ce0565b906106c4565b611108565b61115c915060203d8111611162575b6111548183610749565b810190610c58565b38610f3d565b503d61114a565b610cb4565b61118161117b60016100e5565b916100df565b146000146111915760015b610edc565b600261118c565b50610e8d6111a582610b26565b6111b86111b26002610b35565b916100df565b11159050610e84565b6111d2906111cd61133b565b6111d4565b565b806111f06111ea6111e5600061093b565b6101f8565b916101f8565b14611200576111fe906113db565b565b61122b61120d600061093b565b6112156100bc565b918291631e4fbdf760e01b83526004830161040d565b0390fd5b611238906111c1565b565b61124390610263565b90565b60207f6e74726163740000000000000000000000000000000000000000000000000000917f43616e6e6f742063616c6c20726563656976652066726f6d207468697320636f60008201520152565b6112a1602660409261059a565b6112aa81611246565b0190565b6112c49060208101906000818303910152611294565b90565b156112ce57565b6112d66100bc565b62461bcd60e51b8152806112ec600482016112ae565b0390fd5b61131c6112fb611390565b61131561130f61130a3061123a565b6101f8565b916101f8565b14156112c7565b6113396113323461132d60026102b0565b610d78565b60026106c4565b565b611343610996565b61135c611356611351611390565b6101f8565b916101f8565b0361136357565b61138c61136e611390565b6113766100bc565b91829163118cdaa760e01b83526004830161040d565b0390fd5b611398610965565b503390565b906113ae60018060a01b0391610688565b9181191691161790565b90565b906113d06113cb6113d79261026f565b6113b8565b825461139d565b9055565b6113e56000610989565b6113f08260006113bb565b9061142461141e7f8be0079c531659141344cd1fd0a4f28419497f9722a3daafe3b4186f6b6457e09361026f565b9161026f565b9161142d6100bc565b80611437816101b4565b0390a3565b60007f496e76616c696420706c61796572206164647265737300000000000000000000910152565b611471601660209261059a565b61147a8161143c565b0190565b6114949060208101906000818303910152611464565b90565b1561149e57565b6114a66100bc565b62461bcd60e51b8152806114bc6004820161147e565b0390fd5b9160206114e29294936114db60408201966000830190610400565b0190610119565b565b611501826114fb6114f560006109ac565b916100df565b11610a49565b6115258261151e6115186115136103ad565b6100df565b916100df565b1115610acc565b61154b8161154461153e611539600061093b565b6101f8565b916101f8565b1415611497565b6115608261155b600484906104be565b6106c4565b907f43e08d78302cdf9c94e1ffd293c2a3696139ee41cf3199b6f5eed9c7f6cc60909161159761158e6100bc565b928392836114c0565b0390a1565b90565b6115b36115ae6115b89261159c565b6100e2565b6100df565b90565b67ffffffffffffffff81116115d9576115d5602091610729565b0190565b610733565b906115f06115eb836115bb565b610772565b918252565b6115ff60006115de565b90565b61160a6115f5565b90565b5190565b60200190565b90565b6116249051611617565b90565b1b90565b61164561164061163a8361160d565b92611611565b61161a565b9060208110611653575b5090565b6116669060001990602003600802611627565b163861164f565b61167961167e91610293565b6106a5565b90565b611689610cfd565b506116b56116b06116ab61169d602061159f565b6116a5611602565b906117cc565b61162b565b61166d565b90565b60018060981b0190565b60209181520190565b60005b8381106116df575050906000910152565b8060209183015181850152016116ce565b61170f61171860209361171d936117068161160d565b938480936116c2565b958691016116cb565b610729565b0190565b916117459261173860408201936000830190610119565b60208184039101526116f0565b90565b60007f72616e646f6d42797465733a206661696c656400000000000000000000000000910152565b61177d601360209261059a565b61178681611748565b0190565b6117a09060208101906000818303910152611770565b90565b156117aa57565b6117b26100bc565b62461bcd60e51b8152806117c86004820161178a565b0390fd5b6000919082916117da6107c1565b5061180d6117e66116b8565b926117fe6117f26100bc565b93849260208401611721565b60208201810382520382610749565b602081019051915afa6118276118216107c6565b916117a3565b9056fea26469706673582212203202538b5e4413fb2d568ce9a8cb9369aaa8fd7defbe64d8b55fa87b401304c064736f6c63430008170033","linkReferences":{"src/GameLogicLib.sol":{"GameLogicLib":[{"start":4616,"length":20}]}}},"methodIdentifiers":{"FEE_PERCENTAGE()":"000b46f8","MAX_BET()":"7e95b523","owner()":"8da5cb5b","playGame(uint8)":"985d4ac3","playerBets(address)":"c7aa327b","playerScores(address)":"62550ae1","renounceOwnership()":"715018a6","transferOwnership(address)":"f2fde38b","withdrawFunds(uint256)":"155dd5ee"},"id":27}